{
  "contractName": "Patient",
  "abi": [
    {
      "inputs": [],
      "payable": false,
      "stateMutability": "nonpayable",
      "type": "constructor"
    },
    {
      "constant": true,
      "inputs": [],
      "name": "patientCount",
      "outputs": [
        {
          "internalType": "uint256",
          "name": "",
          "type": "uint256"
        }
      ],
      "payable": false,
      "stateMutability": "view",
      "type": "function"
    },
    {
      "constant": true,
      "inputs": [
        {
          "internalType": "uint256",
          "name": "",
          "type": "uint256"
        }
      ],
      "name": "patients",
      "outputs": [
        {
          "internalType": "address",
          "name": "id",
          "type": "address"
        },
        {
          "internalType": "string",
          "name": "name",
          "type": "string"
        },
        {
          "internalType": "string",
          "name": "contact",
          "type": "string"
        },
        {
          "internalType": "string",
          "name": "email",
          "type": "string"
        }
      ],
      "payable": false,
      "stateMutability": "view",
      "type": "function"
    },
    {
      "constant": false,
      "inputs": [
        {
          "internalType": "address",
          "name": "_id",
          "type": "address"
        },
        {
          "internalType": "string",
          "name": "_name",
          "type": "string"
        },
        {
          "internalType": "string",
          "name": "_contact",
          "type": "string"
        },
        {
          "internalType": "string",
          "name": "_email",
          "type": "string"
        }
      ],
      "name": "addPatient",
      "outputs": [],
      "payable": false,
      "stateMutability": "nonpayable",
      "type": "function"
    }
  ],
  "bytecode": "0x608060405234801561001057600080fd5b50610a00806100206000396000f3fe608060405234801561001057600080fd5b50600436106100415760003560e01c80632c76361f1461004657806393119a831461024f578063a0303c4114610401575b600080fd5b61024d6004803603608081101561005c57600080fd5b81019080803573ffffffffffffffffffffffffffffffffffffffff1690602001909291908035906020019064010000000081111561009957600080fd5b8201836020820111156100ab57600080fd5b803590602001918460018302840111640100000000831117156100cd57600080fd5b91908080601f016020809104026020016040519081016040528093929190818152602001838380828437600081840152601f19601f8201169050808301925050505050505091929192908035906020019064010000000081111561013057600080fd5b82018360208201111561014257600080fd5b8035906020019184600183028401116401000000008311171561016457600080fd5b91908080601f016020809104026020016040519081016040528093929190818152602001838380828437600081840152601f19601f820116905080830192505050505050509192919290803590602001906401000000008111156101c757600080fd5b8201836020820111156101d957600080fd5b803590602001918460018302840111640100000000831117156101fb57600080fd5b91908080601f016020809104026020016040519081016040528093929190818152602001838380828437600081840152601f19601f82011690508083019250505050505050919291929050505061041f565b005b61027b6004803603602081101561026557600080fd5b81019080803590602001909291905050506105c9565b604051808573ffffffffffffffffffffffffffffffffffffffff1673ffffffffffffffffffffffffffffffffffffffff168152602001806020018060200180602001848103845287818151815260200191508051906020019080838360005b838110156102f55780820151818401526020810190506102da565b50505050905090810190601f1680156103225780820380516001836020036101000a031916815260200191505b50848103835286818151815260200191508051906020019080838360005b8381101561035b578082015181840152602081019050610340565b50505050905090810190601f1680156103885780820380516001836020036101000a031916815260200191505b50848103825285818151815260200191508051906020019080838360005b838110156103c15780820151818401526020810190506103a6565b50505050905090810190601f1680156103ee5780820380516001836020036101000a031916815260200191505b5097505050505050505060405180910390f35b6104096107e1565b6040518082815260200191505060405180910390f35b6001600081548092919060010191905055506040518060c001604052808573ffffffffffffffffffffffffffffffffffffffff168152602001848152602001838152602001828152602001600060405190808252806020026020018201604052801561049a5781602001602082028038833980820191505090505b50815260200160006040519080825280602002602001820160405280156104d05781602001602082028038833980820191505090505b50815250600080600154815260200190815260200160002060008201518160000160006101000a81548173ffffffffffffffffffffffffffffffffffffffff021916908373ffffffffffffffffffffffffffffffffffffffff160217905550602082015181600101908051906020019061054b9291906107e7565b5060408201518160020190805190602001906105689291906107e7565b5060608201518160030190805190602001906105859291906107e7565b5060808201518160040190805190602001906105a2929190610867565b5060a08201518160050190805190602001906105bf9291906108b4565b5090505050505050565b60006020528060005260406000206000915090508060000160009054906101000a900473ffffffffffffffffffffffffffffffffffffffff1690806001018054600181600116156101000203166002900480601f01602080910402602001604051908101604052809291908181526020018280546001816001161561010002031660029004801561069b5780601f106106705761010080835404028352916020019161069b565b820191906000526020600020905b81548152906001019060200180831161067e57829003601f168201915b505050505090806002018054600181600116156101000203166002900480601f0160208091040260200160405190810160405280929190818152602001828054600181600116156101000203166002900480156107395780601f1061070e57610100808354040283529160200191610739565b820191906000526020600020905b81548152906001019060200180831161071c57829003601f168201915b505050505090806003018054600181600116156101000203166002900480601f0160208091040260200160405190810160405280929190818152602001828054600181600116156101000203166002900480156107d75780601f106107ac576101008083540402835291602001916107d7565b820191906000526020600020905b8154815290600101906020018083116107ba57829003601f168201915b5050505050905084565b60015481565b828054600181600116156101000203166002900490600052602060002090601f016020900481019282601f1061082857805160ff1916838001178555610856565b82800160010185558215610856579182015b8281111561085557825182559160200191906001019061083a565b5b509050610863919061093e565b5090565b8280548282559060005260206000209081019282156108a3579160200282015b828111156108a2578251825591602001919060010190610887565b5b5090506108b09190610963565b5090565b82805482825590600052602060002090810192821561092d579160200282015b8281111561092c5782518260006101000a81548173ffffffffffffffffffffffffffffffffffffffff021916908373ffffffffffffffffffffffffffffffffffffffff160217905550916020019190600101906108d4565b5b50905061093a9190610988565b5090565b61096091905b8082111561095c576000816000905550600101610944565b5090565b90565b61098591905b80821115610981576000816000905550600101610969565b5090565b90565b6109c891905b808211156109c457600081816101000a81549073ffffffffffffffffffffffffffffffffffffffff02191690555060010161098e565b5090565b9056fea265627a7a72315820ebbaa1e0012382941ec1b20a563f1134885af8978e861ca1916460e1a41e8b3064736f6c63430005100032",
  "source": "pragma solidity ^0.5.16;\n\ncontract Patient {\n\n    struct Patient {\n        address id;\n        string name;\n        string contact;\n        string email;\n        bytes32[] files;\n        address[] doctors;\n    }\n\n    mapping(uint => Patient) public patients;\n    // mapping(address => bool) public voters;\n\n    uint public patientCount;\n\n    // string public candidate;\n\n    constructor() public {}\n\n    // event votedEvent(\n    //     uint indexed _candidateId\n    // );\n\n    function addPatient(address _id, string memory _name, string memory _contact, string memory _email) public {\n        patientCount++;\n        patients[patientCount] = Patient(_id, _name, _contact, _email, new bytes32[](0), new address[](0));\n    }\n\n    // function vote(uint _candidateId) public {\n    //     require(!voters[msg.sender]);\n\n    //     require(_candidateId > 0 && _candidateId <= candidatesCount);\n        \n    //     voters[msg.sender] = true;\n        \n    //     candidates[_candidateId].voteCount++;\n    \n    //     emit votedEvent(_candidateId);\n    // }\n\n}",
  "sourcePath": "/Users/sherwyndsouza/Desktop/Work/Blockchain/Medical-Record/blockchain/src/contracts/Patient.sol",
  "compiler": {
    "name": "solc",
    "version": "0.5.16+commit.9c3226ce.Emscripten.clang"
  },
  "schemaVersion": "3.1.0",
  "updatedAt": "2020-04-26T05:34:37.385Z",
  "devdoc": {
    "methods": {}
  },
  "userdoc": {
    "methods": {}
  }
}