{
  "contractName": "File",
  "abi": [
    {
      "inputs": [],
      "payable": false,
      "stateMutability": "nonpayable",
      "type": "constructor"
    },
    {
      "constant": true,
      "inputs": [
        {
          "internalType": "uint256",
          "name": "",
          "type": "uint256"
        }
      ],
      "name": "files",
      "outputs": [
        {
          "internalType": "string",
          "name": "fileName",
          "type": "string"
        },
        {
          "internalType": "string",
          "name": "fileHash",
          "type": "string"
        }
      ],
      "payable": false,
      "stateMutability": "view",
      "type": "function"
    }
  ],
  "bytecode": "0x608060405234801561001057600080fd5b506102cc806100206000396000f3fe608060405234801561001057600080fd5b506004361061002b5760003560e01c8063f4c714b414610030575b600080fd5b61005c6004803603602081101561004657600080fd5b8101908080359060200190929190505050610143565b604051808060200180602001838103835285818151815260200191508051906020019080838360005b838110156100a0578082015181840152602081019050610085565b50505050905090810190601f1680156100cd5780820380516001836020036101000a031916815260200191505b50838103825284818151815260200191508051906020019080838360005b838110156101065780820151818401526020810190506100eb565b50505050905090810190601f1680156101335780820380516001836020036101000a031916815260200191505b5094505050505060405180910390f35b6000602052806000526040600020600091509050806000018054600181600116156101000203166002900480601f0160208091040260200160405190810160405280929190818152602001828054600181600116156101000203166002900480156101ef5780601f106101c4576101008083540402835291602001916101ef565b820191906000526020600020905b8154815290600101906020018083116101d257829003601f168201915b505050505090806001018054600181600116156101000203166002900480601f01602080910402602001604051908101604052809291908181526020018280546001816001161561010002031660029004801561028d5780601f106102625761010080835404028352916020019161028d565b820191906000526020600020905b81548152906001019060200180831161027057829003601f168201915b505050505090508256fea265627a7a72315820dc0f0b5778489ab4ad9cb2ccdf2d4dedbbc2b29bf72cd84f2de100e5a6bb08ef64736f6c63430005100032",
  "source": "pragma solidity ^0.5.16;\n\ncontract File {\n\n    struct fileData {\n        string fileName;\n        string fileHash;\n    }\n\n    mapping(uint => fileData) public files;\n\n    \n\n    constructor() public {}\n\n\n\n\n}",
  "sourcePath": "/Users/sherwyndsouza/Desktop/Work/Blockchain/Medical-Record/blockchain/src/contracts/File.sol",
  "compiler": {
    "name": "solc",
    "version": "0.5.16+commit.9c3226ce.Emscripten.clang"
  },
  "schemaVersion": "3.1.0",
  "updatedAt": "2020-04-27T07:16:00.167Z",
  "devdoc": {
    "methods": {}
  },
  "userdoc": {
    "methods": {}
  }
}